{
  "contractName": "AddressResolver",
  "abi": [
    {
      "constant": true,
      "inputs": [],
      "name": "addr",
      "outputs": [
        {
          "name": "",
          "type": "address"
        }
      ],
      "payable": false,
      "stateMutability": "view",
      "type": "function"
    },
    {
      "constant": true,
      "inputs": [],
      "name": "owner",
      "outputs": [
        {
          "name": "",
          "type": "address"
        }
      ],
      "payable": false,
      "stateMutability": "view",
      "type": "function"
    },
    {
      "constant": false,
      "inputs": [
        {
          "name": "newOwner",
          "type": "address"
        }
      ],
      "name": "transferOwnership",
      "outputs": [],
      "payable": false,
      "stateMutability": "nonpayable",
      "type": "function"
    },
    {
      "inputs": [],
      "payable": false,
      "stateMutability": "nonpayable",
      "type": "constructor"
    },
    {
      "anonymous": false,
      "inputs": [
        {
          "indexed": true,
          "name": "previousOwner",
          "type": "address"
        },
        {
          "indexed": true,
          "name": "newOwner",
          "type": "address"
        }
      ],
      "name": "OwnershipTransferred",
      "type": "event"
    },
    {
      "constant": true,
      "inputs": [],
      "name": "getAddress",
      "outputs": [
        {
          "name": "",
          "type": "address"
        }
      ],
      "payable": false,
      "stateMutability": "view",
      "type": "function"
    },
    {
      "constant": false,
      "inputs": [
        {
          "name": "newaddr",
          "type": "address"
        }
      ],
      "name": "setAddr",
      "outputs": [],
      "payable": false,
      "stateMutability": "nonpayable",
      "type": "function"
    }
  ],
  "bytecode": "0x6060604052341561000f57600080fd5b60008054600160a060020a033316600160a060020a03199091161790556102448061003b6000396000f30060606040526004361061006c5763ffffffff7c010000000000000000000000000000000000000000000000000000000060003504166338cc48318114610071578063767800de146100a05780638da5cb5b146100b3578063d1d80fdf146100c6578063f2fde38b146100e7575b600080fd5b341561007c57600080fd5b610084610106565b604051600160a060020a03909116815260200160405180910390f35b34156100ab57600080fd5b610084610115565b34156100be57600080fd5b610084610124565b34156100d157600080fd5b6100e5600160a060020a0360043516610133565b005b34156100f257600080fd5b6100e5600160a060020a036004351661017d565b600154600160a060020a031690565b600154600160a060020a031681565b600054600160a060020a031681565b60005433600160a060020a0390811691161461014e57600080fd5b6001805473ffffffffffffffffffffffffffffffffffffffff1916600160a060020a0392909216919091179055565b60005433600160a060020a0390811691161461019857600080fd5b600160a060020a03811615156101ad57600080fd5b600054600160a060020a0380831691167f8be0079c531659141344cd1fd0a4f28419497f9722a3daafe3b4186f6b6457e060405160405180910390a36000805473ffffffffffffffffffffffffffffffffffffffff1916600160a060020a03929092169190911790555600a165627a7a723058208c5a2f75687745af8f8d792d369cb6d9b24c420fc00477d6f0d632a688a19c8c0029",
  "source": "pragma solidity ^0.4.19;\n\nimport 'zeppelin-solidity/contracts/ownership/Ownable.sol';\n\ncontract AddressResolver is Ownable {\n\n  address public addr;\n\n  /**\n   * @dev AddressResolver construct function to\n   *      initial with owner\n   */\n  function AddressResolver() public {}\n\n  /**\n   * @dev get current available address\n   */\n  function getAddress() view public returns (address) {\n    return addr;\n  }\n\n  /**\n   * @dev set a new address(when datacenter contract update)\n   * @param newaddr the new address of datacenter adress\n   */\n  function setAddr(address newaddr) onlyOwner public {\n    addr = newaddr;\n  }\n}\n",
  "sourcePath": "/Users/xat_massacre/workspace/ethereum-sport-events-data/contracts/AddressResolver.sol",
  "compiler": {
    "name": "solc",
    "version": "0.4.19+commit.c4cbbb05.Emscripten.clang"
  },
  "schemaVersion": "2.0.0",
  "updatedAt": "2018-05-29T06:22:53.422Z"
}