{
  "contractName": "Bet",
  "abi": [
    {
      "constant": true,
      "inputs": [],
      "name": "duration",
      "outputs": [
        {
          "name": "",
          "type": "uint256"
        }
      ],
      "payable": false,
      "stateMutability": "view",
      "type": "function"
    },
    {
      "constant": true,
      "inputs": [],
      "name": "leftPts",
      "outputs": [
        {
          "name": "",
          "type": "uint256"
        }
      ],
      "payable": false,
      "stateMutability": "view",
      "type": "function"
    },
    {
      "constant": true,
      "inputs": [
        {
          "name": "",
          "type": "address"
        }
      ],
      "name": "playerInfo",
      "outputs": [
        {
          "name": "betAmount",
          "type": "uint256"
        },
        {
          "name": "choice",
          "type": "uint256"
        }
      ],
      "payable": false,
      "stateMutability": "view",
      "type": "function"
    },
    {
      "constant": true,
      "inputs": [],
      "name": "leftOdds",
      "outputs": [
        {
          "name": "",
          "type": "uint256"
        }
      ],
      "payable": false,
      "stateMutability": "view",
      "type": "function"
    },
    {
      "constant": true,
      "inputs": [],
      "name": "rightAmount",
      "outputs": [
        {
          "name": "",
          "type": "uint256"
        }
      ],
      "payable": false,
      "stateMutability": "view",
      "type": "function"
    },
    {
      "constant": true,
      "inputs": [],
      "name": "spread",
      "outputs": [
        {
          "name": "",
          "type": "uint256"
        }
      ],
      "payable": false,
      "stateMutability": "view",
      "type": "function"
    },
    {
      "constant": true,
      "inputs": [],
      "name": "totalBetAmount",
      "outputs": [
        {
          "name": "",
          "type": "uint256"
        }
      ],
      "payable": false,
      "stateMutability": "view",
      "type": "function"
    },
    {
      "constant": true,
      "inputs": [],
      "name": "startTime",
      "outputs": [
        {
          "name": "",
          "type": "uint256"
        }
      ],
      "payable": false,
      "stateMutability": "view",
      "type": "function"
    },
    {
      "constant": true,
      "inputs": [],
      "name": "middleAmount",
      "outputs": [
        {
          "name": "",
          "type": "uint256"
        }
      ],
      "payable": false,
      "stateMutability": "view",
      "type": "function"
    },
    {
      "constant": true,
      "inputs": [],
      "name": "flag",
      "outputs": [
        {
          "name": "",
          "type": "uint256"
        }
      ],
      "payable": false,
      "stateMutability": "view",
      "type": "function"
    },
    {
      "constant": true,
      "inputs": [],
      "name": "winChoice",
      "outputs": [
        {
          "name": "",
          "type": "uint256"
        }
      ],
      "payable": false,
      "stateMutability": "view",
      "type": "function"
    },
    {
      "constant": true,
      "inputs": [],
      "name": "owner",
      "outputs": [
        {
          "name": "",
          "type": "address"
        }
      ],
      "payable": false,
      "stateMutability": "view",
      "type": "function"
    },
    {
      "constant": true,
      "inputs": [],
      "name": "rightPts",
      "outputs": [
        {
          "name": "",
          "type": "uint256"
        }
      ],
      "payable": false,
      "stateMutability": "view",
      "type": "function"
    },
    {
      "constant": true,
      "inputs": [],
      "name": "minimumBet",
      "outputs": [
        {
          "name": "",
          "type": "uint256"
        }
      ],
      "payable": false,
      "stateMutability": "view",
      "type": "function"
    },
    {
      "constant": true,
      "inputs": [],
      "name": "deposit",
      "outputs": [
        {
          "name": "",
          "type": "uint256"
        }
      ],
      "payable": false,
      "stateMutability": "view",
      "type": "function"
    },
    {
      "constant": true,
      "inputs": [],
      "name": "rightOdds",
      "outputs": [
        {
          "name": "",
          "type": "uint256"
        }
      ],
      "payable": false,
      "stateMutability": "view",
      "type": "function"
    },
    {
      "constant": true,
      "inputs": [],
      "name": "gameId",
      "outputs": [
        {
          "name": "",
          "type": "bytes32"
        }
      ],
      "payable": false,
      "stateMutability": "view",
      "type": "function"
    },
    {
      "constant": true,
      "inputs": [],
      "name": "numberOfBet",
      "outputs": [
        {
          "name": "",
          "type": "uint256"
        }
      ],
      "payable": false,
      "stateMutability": "view",
      "type": "function"
    },
    {
      "constant": true,
      "inputs": [],
      "name": "middleOdds",
      "outputs": [
        {
          "name": "",
          "type": "uint256"
        }
      ],
      "payable": false,
      "stateMutability": "view",
      "type": "function"
    },
    {
      "constant": true,
      "inputs": [],
      "name": "leftAmount",
      "outputs": [
        {
          "name": "",
          "type": "uint256"
        }
      ],
      "payable": false,
      "stateMutability": "view",
      "type": "function"
    },
    {
      "constant": true,
      "inputs": [],
      "name": "category",
      "outputs": [
        {
          "name": "",
          "type": "bytes32"
        }
      ],
      "payable": false,
      "stateMutability": "view",
      "type": "function"
    },
    {
      "inputs": [
        {
          "name": "_category",
          "type": "bytes32"
        },
        {
          "name": "_gameId",
          "type": "bytes32"
        },
        {
          "name": "_deposit",
          "type": "uint256"
        },
        {
          "name": "_minimumBet",
          "type": "uint256"
        },
        {
          "name": "_spread",
          "type": "uint256"
        },
        {
          "name": "_leftOdds",
          "type": "uint256"
        },
        {
          "name": "_middleOdds",
          "type": "uint256"
        },
        {
          "name": "_rightOdds",
          "type": "uint256"
        },
        {
          "name": "_flag",
          "type": "uint256"
        },
        {
          "name": "_startTime",
          "type": "uint256"
        },
        {
          "name": "_duration",
          "type": "uint256"
        }
      ],
      "payable": true,
      "stateMutability": "payable",
      "type": "constructor"
    },
    {
      "payable": true,
      "stateMutability": "payable",
      "type": "fallback"
    },
    {
      "anonymous": false,
      "inputs": [
        {
          "indexed": false,
          "name": "addr",
          "type": "address"
        },
        {
          "indexed": false,
          "name": "reward",
          "type": "uint256"
        }
      ],
      "name": "LogDistributeReward",
      "type": "event"
    },
    {
      "anonymous": false,
      "inputs": [
        {
          "indexed": true,
          "name": "category",
          "type": "bytes32"
        },
        {
          "indexed": true,
          "name": "gameId",
          "type": "bytes32"
        },
        {
          "indexed": false,
          "name": "result",
          "type": "string"
        }
      ],
      "name": "LogGameResult",
      "type": "event"
    },
    {
      "anonymous": false,
      "inputs": [
        {
          "indexed": false,
          "name": "addr",
          "type": "address"
        },
        {
          "indexed": false,
          "name": "choice",
          "type": "uint256"
        },
        {
          "indexed": false,
          "name": "betAmount",
          "type": "uint256"
        }
      ],
      "name": "LogParticipant",
      "type": "event"
    },
    {
      "constant": false,
      "inputs": [],
      "name": "close",
      "outputs": [],
      "payable": false,
      "stateMutability": "nonpayable",
      "type": "function"
    },
    {
      "constant": true,
      "inputs": [],
      "name": "getRefundTxFee",
      "outputs": [
        {
          "name": "",
          "type": "uint256"
        }
      ],
      "payable": false,
      "stateMutability": "view",
      "type": "function"
    },
    {
      "constant": true,
      "inputs": [
        {
          "name": "player",
          "type": "address"
        }
      ],
      "name": "checkPlayerExists",
      "outputs": [
        {
          "name": "",
          "type": "bool"
        }
      ],
      "payable": false,
      "stateMutability": "view",
      "type": "function"
    },
    {
      "constant": false,
      "inputs": [
        {
          "name": "choice",
          "type": "uint256"
        }
      ],
      "name": "placeBet",
      "outputs": [],
      "payable": true,
      "stateMutability": "payable",
      "type": "function"
    },
    {
      "constant": false,
      "inputs": [],
      "name": "rechargeDeposit",
      "outputs": [],
      "payable": true,
      "stateMutability": "payable",
      "type": "function"
    },
    {
      "constant": false,
      "inputs": [
        {
          "name": "",
          "type": "bytes32"
        },
        {
          "name": "result",
          "type": "string"
        }
      ],
      "name": "__callback",
      "outputs": [],
      "payable": false,
      "stateMutability": "nonpayable",
      "type": "function"
    },
    {
      "constant": false,
      "inputs": [
        {
          "name": "myid",
          "type": "bytes32"
        },
        {
          "name": "result",
          "type": "string"
        },
        {
          "name": "proof",
          "type": "bytes"
        }
      ],
      "name": "__callback",
      "outputs": [],
      "payable": false,
      "stateMutability": "nonpayable",
      "type": "function"
    },
    {
      "constant": false,
      "inputs": [],
      "name": "refund",
      "outputs": [],
      "payable": false,
      "stateMutability": "nonpayable",
      "type": "function"
    },
    {
      "constant": false,
      "inputs": [
        {
          "name": "winOdds",
          "type": "uint256"
        }
      ],
      "name": "testDistribute",
      "outputs": [],
      "payable": false,
      "stateMutability": "nonpayable",
      "type": "function"
    }
  ],
  "bytecode": "0x60606040526000600e55612a306018556040516101608061227b833981016040528080519190602001805191906020018051919060200180519190602001805191906020018051919060200180519190602001805191906020018051919060200180519190602001805160058054600160a060020a03191633600160a060020a03161790556016949094555050600699909955600797909755600895909555600993909355600a91909155600b55600c55600d556017919091556018556121b0806100cb6000396000f3006060604052600436106101665763ffffffff60e060020a6000350416630fb5a6b4811461016857806310fe7c481461018d57806327dc297e1461019857806338bbfa50146101ee5780634081d9161461028657806343d726d6146102b9578063446155cd146102cc5780634b114691146102df5780634b5460b9146103165780634f25b9ce14610329578063590e1ae31461033c5780635c25c76c1461034f578063613f45941461036257806378e9792514610375578063837708e214610388578063890eba681461039b5780638954f5b1146103ae5780638da5cb5b146103c157806398fd29fb146103f0578063a9a29afa14610406578063bb03948e14610419578063c38a8afd1461042c578063c6e715e11461043f578063d0e30db014610447578063d4630e221461045a578063d7c81b551461046d578063e06868e214610480578063e6bce5a714610493578063eadf76c5146104a6578063ef430aa6146104b9575b005b341561017357600080fd5b61017b6104cc565b60405190815260200160405180910390f35b6101666004356104d2565b34156101a357600080fd5b610166600480359060446024803590810190830135806020601f820181900481020160405190810160405281815292919060208401838380828437509496506105f295505050505050565b34156101f957600080fd5b610166600480359060446024803590810190830135806020601f8201819004810201604051908101604052818152929190602084018383808284378201915050505050509190803590602001908201803590602001908080601f01602080910402602001604051908101604052818152929190602084018383808284375094965061080695505050505050565b341561029157600080fd5b6102a5600160a060020a036004351661080b565b604051901515815260200160405180910390f35b34156102c457600080fd5b61016661083e565b34156102d757600080fd5b61017b6108f1565b34156102ea57600080fd5b6102fe600160a060020a03600435166108f7565b60405191825260208201526040908101905180910390f35b341561032157600080fd5b61017b610910565b341561033457600080fd5b61017b610916565b341561034757600080fd5b61016661091c565b341561035a57600080fd5b61017b610994565b341561036d57600080fd5b61017b61099a565b341561038057600080fd5b61017b6109a0565b341561039357600080fd5b61017b6109a6565b34156103a657600080fd5b61017b6109ac565b34156103b957600080fd5b61017b6109b2565b34156103cc57600080fd5b6103d46109b8565b604051600160a060020a03909116815260200160405180910390f35b34156103fb57600080fd5b6101666004356109c7565b341561041157600080fd5b61017b610ace565b341561042457600080fd5b61017b610af0565b341561043757600080fd5b61017b610af6565b610166610afc565b341561045257600080fd5b61017b610b23565b341561046557600080fd5b61017b610b29565b341561047857600080fd5b61017b610b2f565b341561048b57600080fd5b61017b610b35565b341561049e57600080fd5b61017b610b3b565b34156104b157600080fd5b61017b610b41565b34156104c457600080fd5b61017b610b47565b60185481565b60175442106104e057600080fd5b80600114806104ef5750806002145b806104fa5750806003145b151561050557600080fd5b60095434101561051457600080fd5b61051d3361080b565b1561052757600080fd5b6105318134610b4d565b151561053c57600080fd5b600160a060020a0333166000908152601a60205260409020348082556001909101829055600e546105729163ffffffff610c5616565b600e5560125461058990600163ffffffff610c5616565b6012556105968134610c6c565b7fe30c5c2cba8a36d53ebd7fc205f3c93aa38345f9331e1338a77c1df62507c8713382346040518084600160a060020a0316600160a060020a03168152602001838152602001828152602001935050505060405180910390a150565b6105fa61209f565b610602610ccc565b600160a060020a031633600160a060020a031614151561062157600080fd5b6016546001148061063457506016546002145b151561063f57600080fd5b6007546006547f301e143895b61649315b6dacfbc11249ff11c93f1937d43873346b8d3a2980248460405160208082528190810183818151815260200191508051906020019080838360005b838110156106a357808201518382015260200161068b565b50505050905090810190601f1680156106d05780820380516001836020036101000a031916815260200191505b509250505060405180910390a361071960408051908101604052600181527f2d000000000000000000000000000000000000000000000000000000000000006020820152610e6c565b905061074c6107476107428361073661073187610e6c565b610e96565b9063ffffffff610ebd16565b610ed0565b610f1e565b6013556107716107476107428361076561073187610e6c565b9063ffffffff610f3116565b601455601654600114156107a357601354600a54601454011061079857600260155561079e565b60016015555b6107c2565b601454600a5460135401106107bc5760016015556107c2565b60026015555b601554600114806107d557506015546002145b15156107e057600080fd5b601554600114156107fb576107f6600b54610f44565b610806565b610806600d54610f44565b505050565b600160a060020a0381166000908152601a6020526040812060010154151561083557506000610839565b5060015b919050565b6108466120b6565b30600160a060020a03163161088d60408051908101604052600381527f55524c0000000000000000000000000000000000000000000000000000000000602082015261101d565b11156108a05761089b61091c565b6108ee565b6108ab60075461122b565b90506108ec600060408051908101604052600381527f55524c000000000000000000000000000000000000000000000000000000000060208201528361139c565b505b50565b60135481565b601a602052600090815260409020805460019091015482565b600b5481565b60115481565b6000805b6019548210156108ec57601980548390811061093857fe5b6000918252602080832090910154600160a060020a0316808352601a90915260409182902054909250829181156108fc02919051600060405180830381858888f19350505050151561098957600080fd5b600190910190610920565b600a5481565b600e5481565b60175481565b60105481565b60165481565b60155481565b600554600160a060020a031681565b6000805b6019548210156108065760198054839081106109e357fe5b6000918252602080832090910154601554600160a060020a03909116808452601a9092526040909220600101549092501415610ac357600160a060020a0381166000908152601a60205260409020547f39e706ee2f2a568a6a6b4101be7ae4ddf08dbfd1044a76eca39f6932ff4f6b0a908290606490860204604051600160a060020a03909216825260208201526040908101905180910390a1600160a060020a0381166000818152601a6020526040908190205460649086020480156108fc029151600060405180830381858888f193505050501515610ac357600080fd5b6001909101906109cb565b601254600090610aea90655f7f37b3900063ffffffff61171516565b90505b90565b60145481565b60095481565b600954341015610b0b57600080fd5b600854610b1e903463ffffffff610c5616565b600855565b60085481565b600d5481565b60075481565b60125481565b600c5481565b600f5481565b60065481565b6000808360011415610b9857610b916064610b85610b7686600f54610c5690919063ffffffff16565b600b549063ffffffff61171516565b9063ffffffff61174016565b9050610bfc565b8360021415610bcd57610b916064610b85610bbe86601054610c5690919063ffffffff16565b600c549063ffffffff61171516565b610bf96064610b85610bea86601154610c5690919063ffffffff16565b600d549063ffffffff61171516565b90505b610c23600854610c1785600e54610c5690919063ffffffff16565b9063ffffffff610c5616565b610c3b610c2e610ace565b839063ffffffff610c5616565b1115610c4a5760009150610c4f565b600191505b5092915050565b600082820183811015610c6557fe5b9392505050565b8160011415610c8e57600f54610c88908263ffffffff610c5616565b506108ec565b8160021415610cb257601054610caa908263ffffffff610c5616565b6010556108ec565b601154610cc5908263ffffffff610c5616565b6011555050565b60008054600160a060020a03161580610cf75750600054610cf590600160a060020a0316611757565b155b15610d0857610d06600061175b565b505b60008054600160a060020a0316906338cc483190604051602001526040518163ffffffff1660e060020a028152600401602060405180830381600087803b1515610d5157600080fd5b6102c65a03f11515610d6257600080fd5b5050506040518051600154600160a060020a039081169116149050610e055760008054600160a060020a0316906338cc483190604051602001526040518163ffffffff1660e060020a028152600401602060405180830381600087803b1515610dca57600080fd5b6102c65a03f11515610ddb57600080fd5b505050604051805160018054600160a060020a031916600160a060020a0392909216919091179055505b600154600160a060020a031663c281d19e6000604051602001526040518163ffffffff1660e060020a028152600401602060405180830381600087803b1515610e4d57600080fd5b6102c65a03f11515610e5e57600080fd5b505050604051805191505090565b610e7461209f565b6020820160408051908101604052808451815260200182905291505b50919050565b610e9e61209f565b6040805190810160405280835181526020018360200151905292915050565b610ec561209f565b610c4f838383611765565b610ed86120b6565b610ee06120b6565b60008351604051805910610ef15750595b818152601f19601f830116810160200160405290509150602082019050610c4f81856020015186516117d4565b6000610f2b826000611819565b92915050565b610f3961209f565b610c4f83838361198a565b6000805b60195482101561100a576019805483908110610f6057fe5b6000918252602080832090910154601554600160a060020a03909116808452601a9092526040909220600101549092501415610fdc57600160a060020a0381166000818152601a6020526040908190205460649086020480156108fc029151600060405180830381858888f193505050501515610fdc57600080fd5b600160a060020a0381166000908152601a602052604081208181556001908101919091559190910190610f48565b60006110176019826120c8565b50505050565b60008054600160a060020a03161580611048575060005461104690600160a060020a0316611757565b155b1561105957611057600061175b565b505b60008054600160a060020a0316906338cc483190604051602001526040518163ffffffff1660e060020a028152600401602060405180830381600087803b15156110a257600080fd5b6102c65a03f115156110b357600080fd5b5050506040518051600154600160a060020a0390811691161490506111565760008054600160a060020a0316906338cc483190604051602001526040518163ffffffff1660e060020a028152600401602060405180830381600087803b151561111b57600080fd5b6102c65a03f1151561112c57600080fd5b505050604051805160018054600160a060020a031916600160a060020a0392909216919091179055505b600154600160a060020a031663524f3889836000604051602001526040518263ffffffff1660e060020a0281526004018080602001828103825283818151815260200191508051906020019080838360005b838110156111c05780820151838201526020016111a8565b50505050905090810190601f1680156111ed5780820380516001836020036101000a031916815260200191505b5092505050602060405180830381600087803b151561120b57600080fd5b6102c65a03f1151561121c57600080fd5b50505060405180519392505050565b6112336120b6565b61123b6120b6565b600360405180591061124a5750595b90808252806020026020018201604052801561128057816020015b61126d61209f565b8152602001906001900390816112655790505b5090506112e8606060405190810160405280603a81526020017f6a736f6e28687474703a2f2f6170692e74746e62616c6974652e636f6d2f617081526020017f692f6e62612f67616d652f71756572792f3f67616d655f69643d000000000000815250610e6c565b816000815181106112f557fe5b60209081029091010152611308836119ea565b8160018151811061131557fe5b6020908102909101015261135b60408051908101604052600d81527f292e646174612e726573756c74000000000000000000000000000000000000006020820152610e6c565b8160028151811061136857fe5b90602001906020020181905250610c6581611390602060405190810160405260008152610e6c565b9063ffffffff611a1316565b600080548190600160a060020a031615806113c957506000546113c790600160a060020a0316611757565b155b156113da576113d8600061175b565b505b60008054600160a060020a0316906338cc483190604051602001526040518163ffffffff1660e060020a028152600401602060405180830381600087803b151561142357600080fd5b6102c65a03f1151561143457600080fd5b5050506040518051600154600160a060020a0390811691161490506114d75760008054600160a060020a0316906338cc483190604051602001526040518163ffffffff1660e060020a028152600401602060405180830381600087803b151561149c57600080fd5b6102c65a03f115156114ad57600080fd5b505050604051805160018054600160a060020a031916600160a060020a0392909216919091179055505b600154600160a060020a031663524f3889856000604051602001526040518263ffffffff1660e060020a0281526004018080602001828103825283818151815260200191508051906020019080838360005b83811015611541578082015183820152602001611529565b50505050905090810190601f16801561156e5780820380516001836020036101000a031916815260200191505b5092505050602060405180830381600087803b151561158c57600080fd5b6102c65a03f1151561159d57600080fd5b5050506040518051915050670de0b6b3a764000062030d403a02018111156115c8576000915061170d565b600154600160a060020a031663adf59f99828787876000604051602001526040518563ffffffff1660e060020a028152600401808481526020018060200180602001838103835285818151815260200191508051906020019080838360005b8381101561163f578082015183820152602001611627565b50505050905090810190601f16801561166c5780820380516001836020036101000a031916815260200191505b50838103825284818151815260200191508051906020019080838360005b838110156116a257808201518382015260200161168a565b50505050905090810190601f1680156116cf5780820380516001836020036101000a031916815260200191505b50955050505050506020604051808303818588803b15156116ef57600080fd5b6125ee5a03f1151561170057600080fd5b5050505060405180519250505b509392505050565b6000808315156117285760009150610c4f565b5082820282848281151561173857fe5b0414610c6557fe5b600080828481151561174e57fe5b04949350505050565b3b90565b6000610f2b611b43565b61176d61209f565b60006117858551866020015186518760200151611e67565b905084602001516020808501919091528501518103835284518560200151018114156117b457600085526117cb565b835183510185818151039052508351810160208601525b50909392505050565b60005b602082106117fa57825184526020840193506020830192506020820391506117d7565b6001826020036101000a03905080198351168185511617909352505050565b60006118236120b6565b5082600080805b835181101561196a577f300000000000000000000000000000000000000000000000000000000000000084828151811061186057fe5b016020015160f860020a900460f860020a02600160f860020a031916101580156118d157507f39000000000000000000000000000000000000000000000000000000000000008482815181106118b257fe5b016020015160f860020a900460f860020a02600160f860020a03191611155b156119275781156118f0578515156118e85761196a565b600019909501945b600a83029250603084828151811061190457fe5b016020015160f860020a900460f860020a0260f860020a90040383019250611962565b83818151811061193357fe5b016020015160f860020a900460f860020a02600160f860020a031916602e60f860020a02141561196257600191505b60010161182a565b600086111561197c5785600a0a830292505b8294505b5050505092915050565b61199261209f565b60006119aa8551866020015186518760200151611f24565b60208085018290529091508501518103855103835260208501518114156119d457600085526117cb565b8351835101858181510390525091949350505050565b6119f261209f565b6040516020818101604052838252820152611a0c82611fda565b8152919050565b611a1b6120b6565b600080611a266120b6565b600085511515611a46576020604051908101604052600081529450611980565b60018651038751029350600092505b8551831015611a8457858381518110611a6a57fe5b906020019060200201515190930192600190920191611a55565b83604051805910611a925750595b818152601f19601f8301168101602001604052905060009350915050602081015b8551831015611b3957611af681878581518110611acc57fe5b9060200190602002015160200151888681518110611ae657fe5b90602001906020020151516117d4565b858381518110611b0257fe5b9060200190602002015151016001865103831015611b2e57611b2a81886020015189516117d4565b8651015b600190920191611ab3565b5095945050505050565b600080611b63731d3b2638a7cc9f2cb3d298a3da7a90b67e5506ed611757565b1115611bd35760008054600160a060020a031916731d3b2638a7cc9f2cb3d298a3da7a90b67e5506ed179055611bcb60408051908101604052600b81527f6574685f6d61696e6e6574000000000000000000000000000000000000000000602082015261208c565b506001610aed565b6000611bf273c03a2615d5efaf5f49f60b7bb6583eaec212fdf1611757565b1115611c5a5760008054600160a060020a03191673c03a2615d5efaf5f49f60b7bb6583eaec212fdf1179055611bcb60408051908101604052600c81527f6574685f726f707374656e330000000000000000000000000000000000000000602082015261208c565b6000611c7973b7a07bcf2ba2f2703b24c0691b5278999c59ac7e611757565b1115611ce15760008054600160a060020a03191673b7a07bcf2ba2f2703b24c0691b5278999c59ac7e179055611bcb60408051908101604052600981527f6574685f6b6f76616e0000000000000000000000000000000000000000000000602082015261208c565b6000611d0073146500cfd35b22e4a392fe0adc06de1a1368ed48611757565b1115611d685760008054600160a060020a03191673146500cfd35b22e4a392fe0adc06de1a1368ed48179055611bcb60408051908101604052600b81527f6574685f72696e6b656279000000000000000000000000000000000000000000602082015261208c565b6000611d87736f485c8bf6fc43ea212e93bbf8ce046c7f1cb475611757565b1115611dbb575060008054600160a060020a031916736f485c8bf6fc43ea212e93bbf8ce046c7f1cb4751790556001610aed565b6000611dda7320e12a1f859b3feae5fb2a0a32c18f5a65555bbf611757565b1115611e0e575060008054600160a060020a0319167320e12a1f859b3feae5fb2a0a32c18f5a65555bbf1790556001610aed565b6000611e2d7351efaf4c8b3c9afbd5ab9f4bbc82784ab6ef8faa611757565b1115611e61575060008054600160a060020a0319167351efaf4c8b3c9afbd5ab9f4bbc82784ab6ef8faa1790556001610aed565b50600090565b600083818080808080808c8b11611f0e5760208b11611ed757600019600860208d90030260020a01199550858a511694508a8d8d010393508588511692505b828514611ecf57838810611ebe578c8c019850611f14565b600190970196858851169250611ea6565b879850611f14565b8a8a209150600096505b8a8d038711611f0e575089872081811415611efe57879850611f14565b6001978801979690960195611ee1565b8c8c0198505b5050505050505050949350505050565b60008080808080808a8911611fc85760208911611f9357600019600860208b90030260020a01199450848851169350888b8b010395508486511692505b828414611f8957898611611f7757899650611fcc565b60001990950194848651169250611f61565b8886019650611fcc565b8888209150888b038a0195505b898610611fc8575087852081811415611fbd578886019650611fcc565b600186039550611fa0565b8996505b505050505050949350505050565b600080821515611fed5760009150610e90565b6fffffffffffffffffffffffffffffffff8316151561202057601001700100000000000000000000000000000000830492505b67ffffffffffffffff831615156120435760080168010000000000000000830492505b63ffffffff8316151561205e57600401640100000000830492505b61ffff831615156120755760020162010000830492505b60ff83161515612083576001015b60200392915050565b60028180516108ec9291602001906120ec565b604080519081016040526000808252602082015290565b60206040519081016040526000815290565b8154818355818115116108065760008381526020902061080691810190830161216a565b828054600181600116156101000203166002900490600052602060002090601f016020900481019282601f1061212d57805160ff191683800117855561215a565b8280016001018555821561215a579182015b8281111561215a57825182559160200191906001019061213f565b5061216692915061216a565b5090565b610aed91905b8082111561216657600081556001016121705600a165627a7a72305820cd3c95fe3b24aeab00b3e6f6ef645a18c87e0ed384cd7e6daf3b815adf7928260029",
  "source": "pragma solidity ^0.4.18;\n\n// import \"github.com/oraclize/ethereum-api/oraclizeAPI.sol\";\n// import \"github.com/Arachnid/solidity-stringutils/strings.sol\";\n\nimport './utils/usingOraclize.sol';\nimport './utils/strings.sol';\nimport './utils/SafeMath.sol';\n\ncontract Bet is usingOraclize {\n  using strings for *;\n  using SafeMath for uint;\n  address public owner;\n\n  event LogDistributeReward(address addr, uint reward);\n  event LogGameResult(bytes32 indexed category, bytes32 indexed gameId, string result);\n  event LogParticipant(address addr, uint choice, uint betAmount);\n\n  /** \n   * @desc\n   * gameId: is a fixed string just like \"0021701030\"\n   *   the full gameId encode(include football, basketball, esports..) will publish on github\n   * leftOdds: need divide 100, if odds is 216 means 2.16\n   * middleOdds: need divide 100, if odds is 175 means 1.75\n   * rightOdds: need divide 100, if odds is 250 means 2.50\n   * spread: need add 0.5, if spread is 0 means 0.5\n   */\n  bytes32 public category;\n  bytes32 public gameId;\n  uint public deposit;\n  uint public minimumBet;\n  uint public spread;\n  uint public leftOdds;\n  uint public middleOdds;\n  uint public rightOdds;\n\n  struct Player {\n    uint betAmount;\n    uint choice;\n  }\n\n  /**\n   * @desc\n   * winChoice: Indicate the winner choice of this betting\n   *   1 means leftTeam win, 3 means rightTeam win, 2 means draw(leftTeam is not always equivalent to the home team)\n   * flag: Indicate which team take spread\n   *   1 means leftTeam, 3 means rightTeam\n   * duration: Indicate the time _this game will last\n   */\n  uint public totalBetAmount = 0;\n  uint public leftAmount;\n  uint public middleAmount;\n  uint public rightAmount;\n  uint public numberOfBet;\n  uint public leftPts;\n  uint public rightPts;\n  uint public winChoice;\n  uint public flag;\n  uint public startTime;\n  uint public duration = 3600 * 3;\n\n  address [] players;\n  mapping(address => Player) public playerInfo;\n\n  function() payable public {}\n\n  function Bet(bytes32 _category, bytes32 _gameId, uint _deposit, uint _minimumBet, \n                  uint _spread, uint _leftOdds, uint _middleOdds, uint _rightOdds, uint _flag,\n                  uint _startTime, uint _duration) payable public {\n    //require(_startTime > now);\n    owner = msg.sender;\n\n    flag = _flag;\n    category = _category;\n    gameId = _gameId;\n    deposit = _deposit;\n    minimumBet = _minimumBet;\n    spread = _spread;\n    leftOdds = _leftOdds;\n    middleOdds = _middleOdds;\n    rightOdds = _rightOdds;\n    startTime = _startTime;\n    duration = _duration;\n\n    // oraclize_setCustomGasPrice(4000000000 wei);\n    // oraclize_setProof(proofType_TLSNotary | proofStorage_IPFS);\n\n    // Set a delay close function\n    // close();\n  }\n\n  /**\n   * @dev compose a url can get the result of game\n   * @param _gameId The unique identity of a game\n   */\n  function getQueryUrl(bytes32 _gameId) internal pure returns (string) {\n    strings.slice[] memory parts = new strings.slice[](3);\n    parts[0] = 'json(http://api.ttnbalite.com/api/nba/game/query/?game_id='.toSlice();\n    parts[1] = _gameId.toSliceB32();\n    parts[2] = ').data.result'.toSlice();\n    return ''.toSlice().join(parts);\n  }\n\n  /**\n   * @dev close this bet\n   * @notice need modify to internal\n   */\n  function close() public {\n    if (oraclize_getPrice(\"URL\") > address(this).balance) {\n      refund();\n    } else {\n      string memory url = getQueryUrl(gameId);\n      // oraclize_query(duration, \"URL\", url);\n      oraclize_query(0, \"URL\", url);\n    }\n  }\n\n  /**\n   * @dev calculate the gas whichdistribute rewards will cost\n   * set default gasPrice is 5000000000\n   */\n  function getRefundTxFee() view public returns (uint) {\n    return numberOfBet.mul(5000000000 * 21000);\n  }\n\n  /**\n   * @dev find a player has participanted or not\n   * @param player the address of the participant\n   */\n  function checkPlayerExists(address player) view public returns (bool) {\n    if (playerInfo[player].choice == 0) {\n      return false;\n    }\n    return true;\n  }\n\n  /**\n   * @dev to check the dealer is solvent or not\n   * @param choice indicate which team user choose\n   * @param amount indicate how many ether user bet\n   */\n  function isSolvent(uint choice, uint amount) view internal returns (bool) {\n    uint needAmount;\n    if (choice == 1) {\n      needAmount = leftOdds.mul(leftAmount.add(amount)).div(100);\n    } else if (choice == 2) {\n      needAmount = middleOdds.mul(middleAmount.add(amount)).div(100);\n    } else {\n      needAmount = rightOdds.mul(rightAmount.add(amount)).div(100);\n    }\n\n    if (needAmount.add(getRefundTxFee()) > totalBetAmount.add(amount).add(deposit)) {\n      return false;\n    } else {\n      return true;\n    }\n  }\n\n  /**\n   * @dev update this bet some state\n   * @param choice indicate which team user choose\n   * @param amount indicate how many ether user bet\n   */\n  function updateAmountOfEachChoice(uint choice, uint amount) internal {\n    if (choice == 1) {\n      leftAmount == leftAmount.add(amount);\n    } else if (choice == 2) {\n      middleAmount = middleAmount.add(amount);\n    } else {\n      rightAmount = rightAmount.add(amount);\n    }\n  }\n\n  /**\n   * @dev place a bet with his/her choice\n   * @param choice indicate which team user choose\n   */\n  function placeBet(uint choice) public payable {\n    require(now < startTime);\n    require(choice == 1 ||  choice == 2 || choice == 3);\n    require(msg.value >= minimumBet);\n    require(!checkPlayerExists(msg.sender));\n\n    if (!isSolvent(choice, msg.value)) {\n      revert();\n    }\n\n    playerInfo[msg.sender].betAmount = msg.value;\n    playerInfo[msg.sender].choice = choice;\n\n    totalBetAmount = totalBetAmount.add(msg.value);\n    numberOfBet = numberOfBet.add(1);\n    updateAmountOfEachChoice(choice, msg.value);\n    LogParticipant(msg.sender, choice, msg.value);\n  }\n\n  /**\n   * @dev in order to let more people participant, dealer can recharge\n   *\n   */\n  function rechargeDeposit() public payable {\n    require(msg.value >= minimumBet);\n    deposit = deposit.add(msg.value);\n  }\n\n  /**\n   * @dev oraclize will call this function with result\n   * @param result will be like 117-103(left team is away team) or 1-3(left team is home team)\n   * @notice comment out `myid` to avoid 'unused parameter' warning\n   */\n  function __callback(bytes32 /*myid*/, string result) public {\n    require(msg.sender == oraclize_cbAddress());\n    require(flag == 1 || flag == 2);\n\n    LogGameResult(category, gameId, result);\n    var needle = '-'.toSlice();\n    leftPts = parseInt(result.toSlice().copy().split(needle).toString());\n    rightPts = parseInt(result.toSlice().copy().rsplit(needle).toString());\n\n    if (flag == 1) {\n      if (rightPts + spread >= leftPts) {\n        winChoice = 2;\n      } else {\n        winChoice = 1;\n      }\n    } else {\n      if (leftPts + spread >= rightPts) {\n        winChoice = 1;\n      } else {\n        winChoice = 2;\n      }\n    }\n\n    require(winChoice == 1 || winChoice == 2);\n    if (winChoice == 1) {\n      distributeReward(leftOdds);\n    } else {\n      distributeReward(rightOdds);\n    }\n  }\n\n  function refund() public {\n    for(uint i = 0; i < players.length; i++) {\n      address playerAddress = players[i];\n      playerAddress.transfer(playerInfo[playerAddress].betAmount);\n    }\n  }\n\n  function testDistribute(uint winOdds) public {\n    for(uint i = 0; i < players.length; i++) {\n      address playerAddress = players[i];\n      if(playerInfo[playerAddress].choice == winChoice) {\n        // Distribute ether to winners\n        LogDistributeReward(playerAddress, winOdds * playerInfo[playerAddress].betAmount / 100);\n        playerAddress.transfer(winOdds * playerInfo[playerAddress].betAmount / 100);\n      }\n    }\n  }\n\n  function distributeReward(uint winOdds) internal {\n    for(uint i = 0; i < players.length; i++) {\n      address playerAddress = players[i];\n      if(playerInfo[playerAddress].choice == winChoice) {\n        // Distribute ether to winners\n        playerAddress.transfer(winOdds * playerInfo[playerAddress].betAmount / 100);\n      }\n      delete playerInfo[playerAddress];\n    }\n    players.length = 0;\n  }\n}\n",
  "sourcePath": "/Users/xat_massacre/workspace/bet-center/contracts/Bet.sol",
  "compiler": {
    "name": "solc",
    "version": "0.4.19+commit.c4cbbb05.Emscripten.clang"
  },
  "schemaVersion": "2.0.0",
  "updatedAt": "2018-04-27T01:49:28.292Z"
}