{
  "contractName": "DataCenter",
  "abi": [
    {
      "constant": true,
      "inputs": [
        {
          "name": "",
          "type": "bytes32"
        }
      ],
      "name": "dataCenter",
      "outputs": [
        {
          "name": "gameId",
          "type": "bytes32"
        },
        {
          "name": "detailDataHash",
          "type": "string"
        },
        {
          "name": "leftPts",
          "type": "uint16"
        },
        {
          "name": "rightPts",
          "type": "uint16"
        },
        {
          "name": "confirmations",
          "type": "uint8"
        }
      ],
      "payable": false,
      "stateMutability": "view",
      "type": "function"
    },
    {
      "constant": true,
      "inputs": [],
      "name": "MAX_CONFIRMATIONS",
      "outputs": [
        {
          "name": "",
          "type": "uint256"
        }
      ],
      "payable": false,
      "stateMutability": "view",
      "type": "function"
    },
    {
      "constant": true,
      "inputs": [],
      "name": "CONFIRM_RESULT_BONUS",
      "outputs": [
        {
          "name": "",
          "type": "uint256"
        }
      ],
      "payable": false,
      "stateMutability": "view",
      "type": "function"
    },
    {
      "constant": true,
      "inputs": [],
      "name": "owner",
      "outputs": [
        {
          "name": "",
          "type": "address"
        }
      ],
      "payable": false,
      "stateMutability": "view",
      "type": "function"
    },
    {
      "constant": false,
      "inputs": [
        {
          "name": "newOwner",
          "type": "address"
        }
      ],
      "name": "transferOwnership",
      "outputs": [],
      "payable": false,
      "stateMutability": "nonpayable",
      "type": "function"
    },
    {
      "inputs": [
        {
          "name": "tokenAddr",
          "type": "address"
        }
      ],
      "payable": false,
      "stateMutability": "nonpayable",
      "type": "constructor"
    },
    {
      "payable": true,
      "stateMutability": "payable",
      "type": "fallback"
    },
    {
      "anonymous": false,
      "inputs": [
        {
          "indexed": true,
          "name": "previousOwner",
          "type": "address"
        },
        {
          "indexed": true,
          "name": "newOwner",
          "type": "address"
        }
      ],
      "name": "OwnershipTransferred",
      "type": "event"
    },
    {
      "constant": false,
      "inputs": [
        {
          "name": "gameId",
          "type": "bytes32"
        },
        {
          "name": "leftPts",
          "type": "uint16"
        },
        {
          "name": "rightPts",
          "type": "uint16"
        },
        {
          "name": "hash",
          "type": "string"
        }
      ],
      "name": "saveResult",
      "outputs": [],
      "payable": false,
      "stateMutability": "nonpayable",
      "type": "function"
    },
    {
      "constant": true,
      "inputs": [
        {
          "name": "gameId",
          "type": "bytes32"
        }
      ],
      "name": "getResult",
      "outputs": [
        {
          "name": "",
          "type": "uint16"
        },
        {
          "name": "",
          "type": "uint16"
        },
        {
          "name": "",
          "type": "uint8"
        }
      ],
      "payable": false,
      "stateMutability": "view",
      "type": "function"
    },
    {
      "constant": false,
      "inputs": [
        {
          "name": "gameId",
          "type": "bytes32"
        },
        {
          "name": "leftPts",
          "type": "uint256"
        },
        {
          "name": "rightPts",
          "type": "uint256"
        }
      ],
      "name": "confirmResult",
      "outputs": [],
      "payable": false,
      "stateMutability": "nonpayable",
      "type": "function"
    },
    {
      "constant": true,
      "inputs": [
        {
          "name": "gameId",
          "type": "bytes32"
        },
        {
          "name": "addr",
          "type": "address"
        }
      ],
      "name": "contains",
      "outputs": [
        {
          "name": "",
          "type": "bool"
        }
      ],
      "payable": false,
      "stateMutability": "view",
      "type": "function"
    }
  ],
  "bytecode": "0x6060604052341561000f57600080fd5b6040516020806107e38339810160405280805160008054600160a060020a03338116600160a060020a0319928316179092556001805492909316911617905550506107848061005f6000396000f3006060604052600436106100985763ffffffff7c01000000000000000000000000000000000000000000000000000000006000350416630d8a4cef811461009a5780634f528100146101025780635ce503131461013857806360cf0b01146101fb57806385ca7990146102205780638da5cb5b14610233578063add4c78414610262578063e2370154146102a7578063f2fde38b146102c3575b005b34156100a557600080fd5b610098600480359061ffff60248035821692604435909216919060849060643590810190830135806020601f820181900481020160405190810160405281815292919060208401838380828437509496506102e295505050505050565b341561010d57600080fd5b610124600435600160a060020a03602435166103b3565b604051901515815260200160405180910390f35b341561014357600080fd5b61014e6004356103e2565b60405185815261ffff80851660408301528316606082015260ff8216608082015260a0602082018181528654600261010060018316150260001901909116049183018290529060c0830190879080156101e85780601f106101bd576101008083540402835291602001916101e8565b820191906000526020600020905b8154815290600101906020018083116101cb57829003601f168201915b5050965050505050505060405180910390f35b341561020657600080fd5b61020e61041e565b60405190815260200160405180910390f35b341561022b57600080fd5b61020e610423565b341561023e57600080fd5b61024661042f565b604051600160a060020a03909116815260200160405180910390f35b341561026d57600080fd5b61027860043561043e565b60405161ffff938416815291909216602082015260ff9091166040808301919091526060909101905180910390f35b34156102b257600080fd5b610098600435602435604435610470565b34156102ce57600080fd5b610098600160a060020a0360043516610585565b60005433600160a060020a039081169116146102fd57600080fd5b600084815260026020526040902054849081141561031a57600080fd5b600085815260026020526040902085815560010182805161033f9291602001906106bd565b5050506000928352600260208181526040808620928301805464010000000061ffff1990911661ffff9788161763ffff000019166201000096909716959095029590951764ff0000000019169390931790935533600160a060020a031684526003019091529020805460ff19166001179055565b6000828152600260209081526040808320600160a060020a038516845260030190915290205460ff1692915050565b600260208190526000918252604090912080549181015460019091019061ffff8082169162010000810490911690640100000000900460ff1685565b600681565b678ac7230489e8000081565b600054600160a060020a031681565b6000908152600260208190526040909120015461ffff8082169262010000830490911691640100000000900460ff1690565b6000838152600260205260409020548390811461048c57600080fd5b600084815260026020819052604090912001548490600664010000000090910460ff16106104b957600080fd5b6000858152600260208190526040909120015461ffff16841480156104f957506000858152600260208190526040909120015462010000900461ffff1683145b1561057e5761050885336103b3565b1561051257600080fd5b600085815260026020818152604080842033600160a060020a031685526003810183529084208054600160ff199091168117909155938990529082905201805464ff0000000019811660ff6401000000009283900481169094019093160291909117905561057e610620565b5050505050565b60005433600160a060020a039081169116146105a057600080fd5b600160a060020a03811615156105b557600080fd5b600054600160a060020a0380831691167f8be0079c531659141344cd1fd0a4f28419497f9722a3daafe3b4186f6b6457e060405160405180910390a36000805473ffffffffffffffffffffffffffffffffffffffff1916600160a060020a0392909216919091179055565b600154600160a060020a031663a9059cbb33678ac7230489e800006000604051602001526040517c010000000000000000000000000000000000000000000000000000000063ffffffff8516028152600160a060020a0390921660048301526024820152604401602060405180830381600087803b15156106a057600080fd5b6102c65a03f115156106b157600080fd5b50505060405180515050565b828054600181600116156101000203166002900490600052602060002090601f016020900481019282601f106106fe57805160ff191683800117855561072b565b8280016001018555821561072b579182015b8281111561072b578251825591602001919060010190610710565b5061073792915061073b565b5090565b61075591905b808211156107375760008155600101610741565b905600a165627a7a72305820c2216e087d0daa666a431291b8e9194cff8c5f5c007462b63331d725a8573b1e0029",
  "source": "pragma solidity 0.4.19;\n\nimport 'zeppelin-solidity/contracts/ownership/Ownable.sol';\n\ncontract ERC20 {\n  function totalSupply() public constant returns (uint);\n  function balanceOf(address tokenOwner) public constant returns (uint balance);\n  function allowance(address tokenOwner, address spender) public constant returns (uint remaining);\n  function transfer(address to, uint tokens) public returns (bool success);\n  function approve(address spender, uint tokens) public returns (bool success);\n  function transferFrom(address from, address to, uint tokens) public returns (bool success);\n  event Transfer(address indexed from, address indexed to, uint tokens);\n  event Approval(address indexed tokenOwner, address indexed spender, uint tokens);\n}\n\ncontract DataCenter is Ownable {\n\n  uint public constant CONFIRM_RESULT_BONUS = 10 * 10 ** 18;\n  uint public constant MAX_CONFIRMATIONS = 6;\n\n  // NBA all star game pts may greater than 255\n  struct DataItem {\n    bytes32 gameId;\n    string detailDataHash;\n    uint16 leftPts;\n    uint16 rightPts;\n    uint8 confirmations;\n    mapping (address => bool) confirmAddrs;\n  }\n\n  address token;\n  mapping (bytes32 => DataItem) public dataCenter;\n\n  /**\n   * @dev save game result only be invoked once\n   * @param gameId indicate the unique id of game\n   */\n  modifier onlyOnce (bytes32 gameId) {\n    require(dataCenter[gameId].gameId != gameId);\n    _;\n  }\n\n  /**\n   * @dev make sure game result have saved\n   * @param gameId indicate the unique id of game\n   */\n  modifier gameExist (bytes32 gameId) {\n    require(dataCenter[gameId].gameId == gameId);\n    _;\n  }\n\n  /**\n   * @dev prevent user invoke when confirmations is enough\n   * @param gameId indicate the unique id of game\n   */\n  modifier confirmationNotEnough (bytes32 gameId) {\n    require(dataCenter[gameId].confirmations < MAX_CONFIRMATIONS);\n    _;\n  }\n\n  function () public payable {}\n  function DataCenter(address tokenAddr) public {\n    token = tokenAddr;\n  }\n\n  /**\n   * @dev save game result\n   * @param gameId indicate the unique id of game\n   * @param leftPts the score or points of left team gained(In football left team means home team, in NBA left team means away team)\n   * @param rightPts the score or points of right team gained(In football right team means away team, in NBA left team means home team)\n   * @param hash indicate the IPFS hash of this game s detail data\n   */\n  function saveResult(bytes32 gameId, uint16 leftPts, uint16 rightPts, string hash) onlyOwner onlyOnce(gameId) public {\n    dataCenter[gameId].gameId = gameId;\n    dataCenter[gameId].detailDataHash = hash;\n    dataCenter[gameId].leftPts = leftPts;\n    dataCenter[gameId].rightPts = rightPts;\n    dataCenter[gameId].confirmations = 1;\n    dataCenter[gameId].confirmAddrs[msg.sender] = true;\n  }\n\n  /**\n   * @dev get result of a game and confirmations (simple result)\n   * @param gameId indicate the unique id of game\n   */\n  function getResult(bytes32 gameId) view public returns (uint16, uint16, uint8) {\n    return (dataCenter[gameId].leftPts, dataCenter[gameId].rightPts, dataCenter[gameId].confirmations);\n  }\n\n  /**\n   * @dev encourage user to participant with result audition\n   * @param gameId indicate the unique id of game\n   * @param leftPts the score or points of left team gained(In football left team means home team, in NBA left team means away team)\n   * @param rightPts the score or points of right team gained(In football right team means away team, in NBA left team means home team)\n   */\n  function confirmResult(bytes32 gameId, uint leftPts, uint rightPts) gameExist(gameId) confirmationNotEnough(gameId) public {\n    if (dataCenter[gameId].leftPts == leftPts && dataCenter[gameId].rightPts == rightPts) {\n      require(!contains(gameId, msg.sender));\n      dataCenter[gameId].confirmAddrs[msg.sender] = true;\n      dataCenter[gameId].confirmations += 1;\n      rewardERC20();\n    }\n  }\n\n  /**\n   * @dev to check the given address is in the GameItem confirmList\n   * @param gameId indicate the unique id of game\n   * @param addr indicate the address to check\n   */\n  function contains(bytes32 gameId, address addr) view public returns (bool) {\n    return dataCenter[gameId].confirmAddrs[addr];\n  }\n\n  /**\n   * @dev distribute reward to participants of auditing game result\n   */\n  function rewardERC20() internal {\n    ERC20(token).transfer(msg.sender, CONFIRM_RESULT_BONUS);\n  }\n}\n",
  "sourcePath": "/Users/xat_massacre/workspace/ethereum-sport-events-data/contracts/DataCenter.sol",
  "compiler": {
    "name": "solc",
    "version": "0.4.19+commit.c4cbbb05.Emscripten.clang"
  },
  "schemaVersion": "2.0.0",
  "updatedAt": "2018-05-21T10:26:18.895Z"
}