{
  "contractName": "OriginSportToken",
  "abi": [
    {
      "constant": true,
      "inputs": [],
      "name": "name",
      "outputs": [
        {
          "name": "",
          "type": "string"
        }
      ],
      "payable": false,
      "stateMutability": "view",
      "type": "function"
    },
    {
      "constant": false,
      "inputs": [
        {
          "name": "_spender",
          "type": "address"
        },
        {
          "name": "_value",
          "type": "uint256"
        }
      ],
      "name": "approve",
      "outputs": [
        {
          "name": "",
          "type": "bool"
        }
      ],
      "payable": false,
      "stateMutability": "nonpayable",
      "type": "function"
    },
    {
      "constant": true,
      "inputs": [],
      "name": "totalSupply",
      "outputs": [
        {
          "name": "",
          "type": "uint256"
        }
      ],
      "payable": false,
      "stateMutability": "view",
      "type": "function"
    },
    {
      "constant": true,
      "inputs": [],
      "name": "INITIAL_SUPPLY",
      "outputs": [
        {
          "name": "",
          "type": "uint256"
        }
      ],
      "payable": false,
      "stateMutability": "view",
      "type": "function"
    },
    {
      "constant": true,
      "inputs": [],
      "name": "decimals",
      "outputs": [
        {
          "name": "",
          "type": "uint256"
        }
      ],
      "payable": false,
      "stateMutability": "view",
      "type": "function"
    },
    {
      "constant": true,
      "inputs": [
        {
          "name": "",
          "type": "address"
        }
      ],
      "name": "whitelistedTransfer",
      "outputs": [
        {
          "name": "",
          "type": "bool"
        }
      ],
      "payable": false,
      "stateMutability": "view",
      "type": "function"
    },
    {
      "constant": false,
      "inputs": [
        {
          "name": "_spender",
          "type": "address"
        },
        {
          "name": "_subtractedValue",
          "type": "uint256"
        }
      ],
      "name": "decreaseApproval",
      "outputs": [
        {
          "name": "",
          "type": "bool"
        }
      ],
      "payable": false,
      "stateMutability": "nonpayable",
      "type": "function"
    },
    {
      "constant": true,
      "inputs": [
        {
          "name": "_owner",
          "type": "address"
        }
      ],
      "name": "balanceOf",
      "outputs": [
        {
          "name": "balance",
          "type": "uint256"
        }
      ],
      "payable": false,
      "stateMutability": "view",
      "type": "function"
    },
    {
      "constant": true,
      "inputs": [],
      "name": "owner",
      "outputs": [
        {
          "name": "",
          "type": "address"
        }
      ],
      "payable": false,
      "stateMutability": "view",
      "type": "function"
    },
    {
      "constant": true,
      "inputs": [],
      "name": "transferable",
      "outputs": [
        {
          "name": "",
          "type": "bool"
        }
      ],
      "payable": false,
      "stateMutability": "view",
      "type": "function"
    },
    {
      "constant": true,
      "inputs": [],
      "name": "symbol",
      "outputs": [
        {
          "name": "",
          "type": "string"
        }
      ],
      "payable": false,
      "stateMutability": "view",
      "type": "function"
    },
    {
      "constant": false,
      "inputs": [
        {
          "name": "_spender",
          "type": "address"
        },
        {
          "name": "_addedValue",
          "type": "uint256"
        }
      ],
      "name": "increaseApproval",
      "outputs": [
        {
          "name": "",
          "type": "bool"
        }
      ],
      "payable": false,
      "stateMutability": "nonpayable",
      "type": "function"
    },
    {
      "constant": true,
      "inputs": [
        {
          "name": "_owner",
          "type": "address"
        },
        {
          "name": "_spender",
          "type": "address"
        }
      ],
      "name": "allowance",
      "outputs": [
        {
          "name": "",
          "type": "uint256"
        }
      ],
      "payable": false,
      "stateMutability": "view",
      "type": "function"
    },
    {
      "constant": false,
      "inputs": [
        {
          "name": "newOwner",
          "type": "address"
        }
      ],
      "name": "transferOwnership",
      "outputs": [],
      "payable": false,
      "stateMutability": "nonpayable",
      "type": "function"
    },
    {
      "inputs": [
        {
          "name": "admin",
          "type": "address"
        }
      ],
      "payable": false,
      "stateMutability": "nonpayable",
      "type": "constructor"
    },
    {
      "anonymous": false,
      "inputs": [
        {
          "indexed": true,
          "name": "_burner",
          "type": "address"
        },
        {
          "indexed": false,
          "name": "_value",
          "type": "uint256"
        }
      ],
      "name": "Burn",
      "type": "event"
    },
    {
      "anonymous": false,
      "inputs": [
        {
          "indexed": true,
          "name": "previousOwner",
          "type": "address"
        },
        {
          "indexed": true,
          "name": "newOwner",
          "type": "address"
        }
      ],
      "name": "OwnershipTransferred",
      "type": "event"
    },
    {
      "anonymous": false,
      "inputs": [
        {
          "indexed": true,
          "name": "owner",
          "type": "address"
        },
        {
          "indexed": true,
          "name": "spender",
          "type": "address"
        },
        {
          "indexed": false,
          "name": "value",
          "type": "uint256"
        }
      ],
      "name": "Approval",
      "type": "event"
    },
    {
      "anonymous": false,
      "inputs": [
        {
          "indexed": true,
          "name": "from",
          "type": "address"
        },
        {
          "indexed": true,
          "name": "to",
          "type": "address"
        },
        {
          "indexed": false,
          "name": "value",
          "type": "uint256"
        }
      ],
      "name": "Transfer",
      "type": "event"
    },
    {
      "constant": false,
      "inputs": [
        {
          "name": "_address",
          "type": "address"
        }
      ],
      "name": "addWhitelistedTransfer",
      "outputs": [],
      "payable": false,
      "stateMutability": "nonpayable",
      "type": "function"
    },
    {
      "constant": false,
      "inputs": [],
      "name": "activeTransfer",
      "outputs": [],
      "payable": false,
      "stateMutability": "nonpayable",
      "type": "function"
    },
    {
      "constant": false,
      "inputs": [
        {
          "name": "_to",
          "type": "address"
        },
        {
          "name": "_value",
          "type": "uint256"
        }
      ],
      "name": "transfer",
      "outputs": [
        {
          "name": "",
          "type": "bool"
        }
      ],
      "payable": false,
      "stateMutability": "nonpayable",
      "type": "function"
    },
    {
      "constant": false,
      "inputs": [
        {
          "name": "_from",
          "type": "address"
        },
        {
          "name": "_to",
          "type": "address"
        },
        {
          "name": "_value",
          "type": "uint256"
        }
      ],
      "name": "transferFrom",
      "outputs": [
        {
          "name": "",
          "type": "bool"
        }
      ],
      "payable": false,
      "stateMutability": "nonpayable",
      "type": "function"
    },
    {
      "constant": false,
      "inputs": [
        {
          "name": "_recipients",
          "type": "address[]"
        },
        {
          "name": "_value",
          "type": "uint256"
        }
      ],
      "name": "batchTransfer",
      "outputs": [
        {
          "name": "",
          "type": "bool"
        }
      ],
      "payable": false,
      "stateMutability": "nonpayable",
      "type": "function"
    },
    {
      "constant": false,
      "inputs": [
        {
          "name": "_value",
          "type": "uint256"
        }
      ],
      "name": "burn",
      "outputs": [],
      "payable": false,
      "stateMutability": "nonpayable",
      "type": "function"
    }
  ],
  "bytecode": "0x60606040526003805460a060020a60ff0219169055341561001f57600080fd5b60405160208061105b8339810160405280805160038054600160a060020a03191633600160a060020a03908116919091179091559092508291508116151561006657600080fd5b30600160a060020a031681600160a060020a03161415151561008757600080fd5b81600160a060020a031633600160a060020a0316141515156100a857600080fd5b600160a060020a0382166000818152600460209081526040808320805460ff191660019081179091556af8277896582678ac00000090819055918390528083208290557fddf252ad1be2c89b69c2b068fc378daa952ba7f163c4a11628f55a4df523b3ef91905190815260200160405180910390a361013382640100000000610a0561013a82021704565b50506101c8565b60035433600160a060020a0390811691161461015557600080fd5b600160a060020a038116151561016a57600080fd5b600354600160a060020a0380831691167f8be0079c531659141344cd1fd0a4f28419497f9722a3daafe3b4186f6b6457e060405160405180910390a360038054600160a060020a031916600160a060020a0392909216919091179055565b610e84806101d76000396000f3006060604052600436106101115763ffffffff7c010000000000000000000000000000000000000000000000000000000060003504166306fdde038114610116578063095ea7b3146101a057806312e56faf146101d657806318160ddd146101eb57806323b872dd146102105780632ff2e9dc14610238578063313ce5671461024b57806342966c681461025e5780634f5e6a8d14610274578063661884631461029357806370a08231146102b5578063735b232c146102d457806383f12fec146102f35780638da5cb5b1461034457806392ff0d311461037357806395d89b4114610386578063a9059cbb14610399578063d73dd623146103bb578063dd62ed3e146103dd578063f2fde38b14610402575b600080fd5b341561012157600080fd5b610129610421565b60405160208082528190810183818151815260200191508051906020019080838360005b8381101561016557808201518382015260200161014d565b50505050905090810190601f1680156101925780820380516001836020036101000a031916815260200191505b509250505060405180910390f35b34156101ab57600080fd5b6101c2600160a060020a0360043516602435610458565b604051901515815260200160405180910390f35b34156101e157600080fd5b6101e96104c4565b005b34156101f657600080fd5b6101fe610505565b60405190815260200160405180910390f35b341561021b57600080fd5b6101c2600160a060020a036004358116906024351660443561050b565b341561024357600080fd5b6101fe610592565b341561025657600080fd5b6101fe6105a1565b341561026957600080fd5b6101e96004356105a6565b341561027f57600080fd5b6101c2600160a060020a0360043516610607565b341561029e57600080fd5b6101c2600160a060020a036004351660243561061c565b34156102c057600080fd5b6101fe600160a060020a0360043516610718565b34156102df57600080fd5b6101e9600160a060020a0360043516610733565b34156102fe57600080fd5b6101c26004602481358181019083013580602081810201604051908101604052809392919081815260200183836020028082843750949650509335935061077292505050565b341561034f57600080fd5b61035761085b565b604051600160a060020a03909116815260200160405180910390f35b341561037e57600080fd5b6101c261086a565b341561039157600080fd5b61012961087a565b34156103a457600080fd5b6101c2600160a060020a03600435166024356108b1565b34156103c657600080fd5b6101c2600160a060020a0360043516602435610936565b34156103e857600080fd5b6101fe600160a060020a03600435811690602435166109da565b341561040d57600080fd5b6101e9600160a060020a0360043516610a05565b60408051908101604052601181527f4f726967696e53706f727420546f6b656e000000000000000000000000000000602082015281565b600160a060020a03338116600081815260026020908152604080832094871680845294909152808220859055909291907f8c5be1e5ebec7d5bd14f71427d1e84f3dd0314c0f7b2291e5b200ac8c7c3b9259085905190815260200160405180910390a350600192915050565b60035433600160a060020a039081169116146104df57600080fd5b6003805474ff0000000000000000000000000000000000000000191660a060020a179055565b60015490565b600082600160a060020a038116151561052357600080fd5b30600160a060020a031681600160a060020a03161415151561054457600080fd5b60035460a060020a900460ff16151561057e57600160a060020a03331660009081526004602052604090205460ff16151561057e57600080fd5b610589858585610aa0565b95945050505050565b6af8277896582678ac00000081565b601281565b60035460a060020a900460ff1615156105e057600160a060020a03331660009081526004602052604090205460ff1615156105e057600080fd5b60035433600160a060020a039081169116146105fb57600080fd5b61060481610c20565b50565b60046020526000908152604090205460ff1681565b600160a060020a0333811660009081526002602090815260408083209386168352929052908120548083111561067957600160a060020a0333811660009081526002602090815260408083209388168352929052908120556106b0565b610689818463ffffffff610cf316565b600160a060020a033381166000908152600260209081526040808320938916835292905220555b600160a060020a0333811660008181526002602090815260408083209489168084529490915290819020547f8c5be1e5ebec7d5bd14f71427d1e84f3dd0314c0f7b2291e5b200ac8c7c3b925915190815260200160405180910390a3600191505b5092915050565b600160a060020a031660009081526020819052604090205490565b60035433600160a060020a0390811691161461074e57600080fd5b600160a060020a03166000908152600460205260409020805460ff19166001179055565b600080600080600360149054906101000a900460ff1615156107b557600160a060020a03331660009081526004602052604090205460ff1615156107b557600080fd5b855192506000831180156107ca575060148311155b15156107d557600080fd5b6107e5838663ffffffff610d0516565b91506000851180156108105750600160a060020a033316600090815260208190526040902054829010155b151561081b57600080fd5b5060005b8281101561084f5761084686828151811061083657fe5b90602001906020020151866108b1565b5060010161081f565b50600195945050505050565b600354600160a060020a031681565b60035460a060020a900460ff1681565b60408051908101604052600381527f4f52530000000000000000000000000000000000000000000000000000000000602082015281565b600082600160a060020a03811615156108c957600080fd5b30600160a060020a031681600160a060020a0316141515156108ea57600080fd5b60035460a060020a900460ff16151561092457600160a060020a03331660009081526004602052604090205460ff16151561092457600080fd5b61092e8484610d37565b949350505050565b600160a060020a03338116600090815260026020908152604080832093861683529290529081205461096e908363ffffffff610e4916565b600160a060020a0333811660008181526002602090815260408083209489168084529490915290819020849055919290917f8c5be1e5ebec7d5bd14f71427d1e84f3dd0314c0f7b2291e5b200ac8c7c3b92591905190815260200160405180910390a350600192915050565b600160a060020a03918216600090815260026020908152604080832093909416825291909152205490565b60035433600160a060020a03908116911614610a2057600080fd5b600160a060020a0381161515610a3557600080fd5b600354600160a060020a0380831691167f8be0079c531659141344cd1fd0a4f28419497f9722a3daafe3b4186f6b6457e060405160405180910390a36003805473ffffffffffffffffffffffffffffffffffffffff1916600160a060020a0392909216919091179055565b6000600160a060020a0383161515610ab757600080fd5b600160a060020a038416600090815260208190526040902054821115610adc57600080fd5b600160a060020a0380851660009081526002602090815260408083203390941683529290522054821115610b0f57600080fd5b600160a060020a038416600090815260208190526040902054610b38908363ffffffff610cf316565b600160a060020a038086166000908152602081905260408082209390935590851681522054610b6d908363ffffffff610e4916565b600160a060020a0380851660009081526020818152604080832094909455878316825260028152838220339093168252919091522054610bb3908363ffffffff610cf316565b600160a060020a03808616600081815260026020908152604080832033861684529091529081902093909355908516917fddf252ad1be2c89b69c2b068fc378daa952ba7f163c4a11628f55a4df523b3ef9085905190815260200160405180910390a35060019392505050565b33600160a060020a038116600090815260208190526040902054610c449083610cf3565b600160a060020a038216600090815260208190526040902055600154610c70908363ffffffff610cf316565b600155600160a060020a0381167fcc16f5dbb4873280815c1ee09dbd06736cffcc184412cf7a71a0fdb75d397ca58360405190815260200160405180910390a26000600160a060020a0382167fddf252ad1be2c89b69c2b068fc378daa952ba7f163c4a11628f55a4df523b3ef8460405190815260200160405180910390a35050565b600082821115610cff57fe5b50900390565b600080831515610d185760009150610711565b50828202828482811515610d2857fe5b0414610d3057fe5b9392505050565b6000600160a060020a0383161515610d4e57600080fd5b600160a060020a033316600090815260208190526040902054821115610d7357600080fd5b600160a060020a033316600090815260208190526040902054610d9c908363ffffffff610cf316565b600160a060020a033381166000908152602081905260408082209390935590851681522054610dd1908363ffffffff610e4916565b60008085600160a060020a0316600160a060020a031681526020019081526020016000208190555082600160a060020a031633600160a060020a03167fddf252ad1be2c89b69c2b068fc378daa952ba7f163c4a11628f55a4df523b3ef8460405190815260200160405180910390a350600192915050565b600082820183811015610d3057fe00a165627a7a723058206ba041b102324dcc248df4f7ddadffaa9b52fd1a2bf4301344d096de7c8ac20b0029",
  "source": "pragma solidity 0.4.19;\n\nimport 'zeppelin-solidity/contracts/token/ERC20/StandardToken.sol';\nimport 'zeppelin-solidity/contracts/token/ERC20/BurnableToken.sol';\nimport 'zeppelin-solidity/contracts/math/SafeMath.sol';\nimport 'zeppelin-solidity/contracts/ownership/Ownable.sol';\n\ncontract OriginSportToken is StandardToken, Ownable, BurnableToken {\n  using SafeMath for uint;\n\n  // Events\n  event Burn(address indexed _burner, uint _value);\n\n  // Constants\n  string public constant name           = 'OriginSport Token';\n  string public constant symbol         = 'ORS';\n  uint   public constant decimals       = 18;\n  uint   public constant INITIAL_SUPPLY = 300000000 * 10 ** uint(decimals);\n\n  // Properties\n  bool public transferable = false;\n  mapping (address => bool) public whitelistedTransfer;\n\n  // Filter invalid address\n  modifier validAddress(address addr) {\n    require(addr != address(0x0));\n    require(addr != address(this));\n    _;\n  }\n\n  modifier onlyWhenTransferable() {\n    if (!transferable) {\n      require(whitelistedTransfer[msg.sender]);\n    }\n    _;\n  }\n\n  /**\n   * @dev Constructor for Origin Sport Token, assigns the total supply to admin address \n   * @param admin the admin address of ors\n   */\n  function OriginSportToken(address admin) validAddress(admin) public {\n    require(msg.sender != admin);\n    whitelistedTransfer[admin] = true;\n    totalSupply_ = INITIAL_SUPPLY;\n    balances[admin] = totalSupply_;\n    Transfer(address(0x0), admin, totalSupply_);\n\n    transferOwnership(admin);\n  }\n\n  /**\n   * @dev allow owner to add addresse to transfer tokens\n   * @param _address address Address to be added\n   */\n  function addWhitelistedTransfer(address _address) onlyOwner public {\n    whitelistedTransfer[_address] = true;\n  }\n\n  /**\n   * @dev allow all users to transfer tokens\n   */\n  function activeTransfer() onlyOwner public {\n    transferable = true;\n  }\n\n  /**\n   * @dev overrides transfer function with modifier to prevent from transfer with invalid address\n   * @param _to The address to transfer to\n   * @param _value The amount to be transferred\n   */\n  function transfer(address _to, uint _value) public \n    validAddress(_to) \n    onlyWhenTransferable\n    returns (bool) \n  {\n    return super.transfer(_to, _value);\n  }\n\n  /**\n   * @dev overrides transfer function with modifier to prevent from transfer with invalid address\n   * @param _from The address to transfer from.\n   * @param _to The address to transfer to.\n   * @param _value The amount to be transferred.\n   */\n  function transferFrom(address _from, address _to, uint _value) public \n    validAddress(_to) \n    onlyWhenTransferable\n    returns (bool) \n  {\n    return super.transferFrom(_from, _to, _value);\n  }\n\n  /**\n   * @dev overrides transfer function with modifier to prevent from transfer with invalid address\n   * @param _recipients An array of address to transfer to.\n   * @param _value The amount to be transferred.\n   */\n  function batchTransfer(address[] _recipients, uint _value) public onlyWhenTransferable returns (bool) {\n    uint count = _recipients.length;\n    require(count > 0 && count <= 20);\n    uint needAmount =  count.mul(_value);\n    require(_value > 0 && balances[msg.sender] >= needAmount);\n\n    for (uint i = 0; i < count; i++) {\n      transfer(_recipients[i], _value);\n    }\n    return true;\n  }\n\n  /**\n   * @dev overrides burn function with modifier to prevent burn while untransferable\n   * @param _value The amount to be burned.\n   */\n  function burn(uint _value) public onlyWhenTransferable onlyOwner {\n    super.burn(_value);\n  }\n}\n",
  "sourcePath": "/Users/xat_massacre/workspace/originsport-token/contracts/OriginSportToken.sol",
  "compiler": {
    "name": "solc",
    "version": "0.4.19+commit.c4cbbb05.Emscripten.clang"
  },
  "schemaVersion": "2.0.0",
  "updatedAt": "2018-05-17T12:47:32.685Z"
}